:100000000C9434000C9451000C9451000C94510049
:100010000C9451000C9451000C9451000C9451001C
:100020000C9451000C9451000C9451000C9451000C
:100030000C9451000C9451000C9451000C945100FC
:100040000C9478000C9451000C9451000C945100C5
:100050000C9451000C9451000C9451000C945100DC
:100060000C9451000C94510011241FBECFEFD8E026
:10007000DEBFCDBF11E0A0E0B1E0E2E8F2E002C0F7
:1000800005900D92A431B107D9F721E0A4E1B1E0C8
:1000900001C01D92AD31B207E1F70E94C2000C947D
:1000A0003F010C9400003FB7F894809119019091A2
:1000B0001A01A0911B01B0911C0126B5A89B05C097
:1000C0002F3F19F00196A11DB11D3FBFBA2FA92FD7
:1000D000982F8827820F911DA11DB11DBC01CD0154
:1000E00042E0660F771F881F991F4A95D1F7089540
:1000F0001F920F920FB60F9211242F933F938F935D
:100100009F93AF93BF938091150190911601A09199
:100110001701B09118013091140123E0230F2D37FE
:1001200020F40196A11DB11D05C026E8230F0296FB
:10013000A11DB11D20931401809315019093160108
:10014000A0931701B09318018091190190911A01A1
:10015000A0911B01B0911C010196A11DB11D8093BE
:10016000190190931A01A0931B01B0931C01BF9138
:10017000AF919F918F913F912F910F900FBE0F9054
:100180001F901895789484B5826084BD84B5816091
:1001900084BD85B5826085BD85B5816085BD809152
:1001A0006E00816080936E001092810080918100CA
:1001B00082608093810080918100816080938100C2
:1001C000809180008160809380008091B100846084
:1001D0008093B1008091B00081608093B0008091E5
:1001E0007A00846080937A0080917A0082608093A4
:1001F0007A0080917A00816080937A0080917A0001
:10020000806880937A001092C1008FEF8AB900E075
:1002100010E0C0E0D1E0888122968BB90E945300A3
:100220004B015C0188EEC82E83E0D82EE12CF12C26
:100230000E945300DC01CB0188199909AA09BB0966
:10024000883E9340A105B10598F321E0C21AD10878
:10025000E108F10888EE880E83E0981EA11CB11C0D
:10026000C114D104E104F10419F781E0C431D807C5
:1002700091F60115110569F20E940000CACFF894A9
:02028000FFCFAE
:10028200FC006000DA00F2006600B600BE00E0008A
:04029200FE00E60084
:00000001FF
