:100000000C9401020C9429020C9429020C942902EC
:100010000C9429020C9429020C9429020C942902B4
:100020000C9429020C9429020C9429020C942902A4
:100030000C9429020C9429020C9429020C94290294
:100040000C9448060C9429020C943B050C9415055D
:100050000C9429020C9429020C9429020C94290274
:100060000C9429020C9429025D2000427566666595
:1000700072206F766572666C6F770041542B43492E
:1000800050434C4F53453D00626C6E6B696E660089
:1000900076657200302E362E3100682D62656174EF
:1000A00000313000627566662D696E0032353600AB
:1000B0006465760041726475696E6F20556E6F00DD
:1000C0006370750041546D65676133323850006369
:1000D0006F6E0045535038323636006275696C6475
:1000E000004A756E20323620323031392031373AAD
:1000F00035373A31390000000000000024002700A5
:100100002A0000000000250028002B0041542B434A
:10011000494653520041542B43574D4F44453D00EF
:1001200041542B43574D4F44453F0041542B4349C5
:10013000504D55583D0041542B474D520046616982
:100140006C656420746F2064697361626C6520451E
:1001500063686F00415445004154004661696C6515
:100160006420746F20636F6E6E65637420576946F8
:100170006900436F6E6E656374656420746F205709
:10018000694669004661696C656420746F20736517
:100190007420535441206D6F6465004661696C653D
:1001A0006420746F20656E61626C65204D55580047
:1001B000455350206973206E6F7420726573706FA1
:1001C0006E64696E6700436F6E6E656374696E6717
:1001D00020746F20000D0A202020205F5F5F202008
:1001E0005F5F202020202020202020205F5F0D0A3C
:1001F0002020202F205F20292F202F5F205F5F5F8E
:100200005F5F20202F202F5F5F0D0A20202F205FAF
:1002100020202F202F202F2F202F205F205C2F2009
:1002200020275F2F0D0A202F5F5F5F5F2F5F2F5CFE
:100230005F2C202F5F2F2F5F2F5F2F5C5F5C0D0ADD
:1002400020202020202020202F5F5F5F2F2076306D
:100250002E362E31206F6E2041726475696E6F20CC
:10026000556E6F0D0A002C0041542B4349505345E5
:100270004E443D006D73292E00526561647920283B
:1002800070696E673A2000000000002300260029F4
:10029000000404040404040404020202020202032F
:1002A0000303030303010204081020408001020439
:1002B00008102001020408102000000008000201BC
:1002C000000003040700000000000000005C035C65
:1002D000035C035C035C035C035C035C035C035C26
:1002E000035C035C035C035C035C035C035C035C16
:1002F000035C035C035C035C035C035C035C035C06
:10030000035C035C035C035C035C035C035B035BF7
:10031000035B035B035B035B035B035B035B035BED
:10032000035B035B035B035B035B035B035B035BDD
:10033000035B035B035B035B035B035B035B035BCD
:10034000035B035B035B035B035B035B03496E7649
:10035000616C696420485720636D643A20005365DE
:10036000727665723A2000526564697265637469D9
:100370006E6720746F20005265616479005061637C
:100380006B657420746F6F206269673A2000436F59
:100390006E6E656374206661696C65642E20636FA0
:1003A00064653A2000496E76616C696420617574F9
:1003B0006820746F6B656E004C6F67696E2074699E
:1003C0006D656F7574004865617274626561742053
:1003D00074696D656F757400222C00222C22002C2C
:1003E000220041542B43495053544152543D002262
:1003F00000222C220041542B43574A41503D2200F9
:10040000E31A11241FBECFEFD8E0DEBFCDBF11E04D
:10041000A0E0B1E0E4E6FDE302C005900D92AE3B42
:10042000B107D9F723E0AEEBB1E001C01D92A439CA
:10043000B207E1F712E0C1E0D2E004C02197FE016B
:100440000E948E1DC030D107C9F70E9406170C9478
:10045000B01E0C9400000895CF92DF92EF92FF92AD
:100460000F931F93CF93DF936C017A018B01C0E050
:10047000D0E0CE15DF0589F0D8016D918D01D60150
:10048000ED91FC910190F081E02DC6010995892B39
:1004900011F47E0102C02196ECCFC701DF91CF910C
:1004A0001F910F91FF90EF90DF90CF9008950895E6
:1004B00080E090E00895FC01538D448D252F30E0BD
:1004C000842F90E0821B930B541710F0CF96089561
:1004D00001970895FC01918D828D981761F0828DAE
:1004E000DF01A80FB11D5D968C91928D9F5F9F7368
:1004F000928F90E008958FEF9FEF0895FC01918D0A
:10050000828D981731F0828DE80FF11D858D90E076
:1005100008958FEF9FEF0895FC01918D228D892F13
:1005200090E0805C9F4F821B91098F7399270895FB
:1005300087EC91E00E948C0221E0892B09F420E0F5
:10054000822F0895FC01848DDF01A80FB11DA35AED
:10055000BF4F2C91848D90E001968F739927848FE3
:10056000A689B7892C93A089B1898C9180648C93DA
:10057000938D848D981306C00288F389E02D8081C5
:100580008F7D80830895EF92FF920F931F93CF93F7
:10059000DF93EC0181E0888F9B8D8C8D981305C0D3
:1005A000E889F989808185FD24C0F62E0B8D10E045
:1005B0000F5F1F4F0F731127E02E8C8DE8120CC0B8
:1005C0000FB607FCFACFE889F989808185FFF5CF5E
:1005D000CE010E94A202F1CF8B8DFE01E80FF11D2A
:1005E000E35AFF4FF0820B8FEA89FB89808180629A
:1005F00007C0EE89FF896083E889F989808180647A
:10060000808381E090E0DF91CF911F910F91FF9067
:10061000EF900895CF93DF93EC01888D8823C9F084
:10062000EA89FB89808185FD05C0A889B9898C91FB
:1006300086FD0FC00FB607FCF5CF808185FFF2CF96
:10064000A889B9898C9185FFEDCFCE010E94A202C5
:10065000E7CFDF91CF91089580E090E0892B29F0DA
:100660000E94980281110C94000008953FB7F894FD
:100670008091C3019091C401A091C501B091C601C0
:1006800026B5A89B05C02F3F19F00196A11DB11DED
:100690003FBFBA2FA92F982F8827820F911DA11D28
:1006A000B11DBC01CD0142E0660F771F881F991F65
:1006B0004A95D1F7089508950895CF93DF93EC01FB
:1006C00088819981009711F00E94FD1B1982188280
:1006D0001D821C821B821A82DF91CF9108950F9395
:1006E0001F93CF93DF93EC0188819981009729F0C4
:1006F0002A813B812617370788F48B016F5F7F4F74
:100700000E94941D009761F0998388831B830A835C
:100710002C813D81232B11F4FC01108281E001C06A
:1007200080E0DF91CF911F910F910895EF92FF929A
:100730000F931F93CF93DF93EC017B018A01BA01E2
:100740000E946F03811104C0CE010E945D0307C0A7
:100750001D830C83B701888199810E94801ECE0180
:10076000DF91CF911F910F91FF90EF900895CF935C
:10077000DF93EC01FB018617970761F060817181BF
:100780006115710529F0448155810E94960302C0CC
:100790000E945D03CE01DF91CF910895EF92FF9209
:1007A0000F931F93CF93DF9300D0CDB7DEB78C01AB
:1007B00069831A82FC01E480F580FFEFEF1AFF0ADB
:1007C000B7010E946F03882381F0F80120813181F5
:1007D00084819581BE016F5F7F4F820F931F0E94BE
:1007E000801EF801F582E48281E00F900F90DF9186
:1007F000CF911F910F91FF90EF900895CF93DF93CA
:10080000EC016115710559F0FB0101900020E9F739
:100810003197AF01461B570B0E94960302C00E94FE
:100820005D03CE01DF91CF9108950F931F93CF9376
:10083000DF938C01EB01FC01808191810097B1F085
:10084000688179816115710579F0428153812C812C
:100850003D814217530740F00E94801E8C819D818C
:10086000F8019583848313C00E94FD1B88819981C0
:10087000F801918380838A819B81938382838C8119
:100880009D8195838483198218821B821A821D821E
:100890001C82DF91CF911F910F910895FC018081FF
:1008A00091810C94FD1BFC01118210821382128233
:1008B000158214820C94B703FC01118210821382FA
:1008C0001282158214826115710551F0FB010190AD
:1008D0000020E9F73197AF01461B570B0C949603A4
:1008E0000895DC01ED91FC91DB0114964D915C9132
:1008F00015976D917C910280F381E02D0994EF9220
:10090000FF920F931F93CF93DF938C017B01C0E085
:10091000D0E0F701EC0FFD1F6491662361F0D80170
:10092000ED91FC910190F081E02DC8010995892B92
:1009300011F02196EECFCE01DF91CF911F910F9153
:10094000FF90EF9008956115710579F0FB0101901A
:100950000020E9F73197AF01461B570BDC01ED9101
:10096000FC910280F381E02D099480E090E00895ED
:100970004F925F926F927F92EF92FF920F931F932D
:10098000CF93DF93CDB7DEB7A1970FB6F894DEBF54
:100990000FBECDBF7C01FA01CB0119A2223008F4B1
:1009A0002AE08E010F5D1F4F422E512C612C712CBD
:1009B000BF01A30192010E946C1DF901CA010150FF
:1009C00011096A3014F4605D01C0695CD8016C9350
:1009D000232B242B252B61F7B801C7010E94A30408
:1009E000A1960FB6F894DEBF0FBECDBFDF91CF91B9
:1009F0001F910F91FF90EF907F906F905F904F90BD
:100A000008950F931F93CF93DF93EC010E947F040F
:100A10008C016BE671E0CE010E94A304800F911F50
:100A2000DF91CF911F910F9108951F920F920FB6F2
:100A30000F9211242F933F934F935F936F937F9364
:100A40008F939F93AF93BF93EF93FF9387EC91E0C6
:100A50000E94A202FF91EF91BF91AF919F918F9160
:100A60007F916F915F914F913F912F910F900FBEAA
:100A70000F901F9018951F920F920FB60F9211248E
:100A80002F938F939F93EF93FF93E091D701F09172
:100A9000D8018081E091DD01F091DE0182FD12C07C
:100AA00090818091E0018F5F8F732091E101821727
:100AB00051F0E091E001F0E0E953FE4F958F809313
:100AC000E00101C08081FF91EF919F918F912F9163
:100AD0000F900FBE0F901F901895833081F028F46F
:100AE000813099F08230A1F008958730A9F08830E4
:100AF000B9F08430D1F4809180008F7D03C0809163
:100B000080008F7780938000089584B58F7702C02E
:100B100084B58F7D84BD08958091B0008F7703C028
:100B20008091B0008F7D8093B00008951F93CF9384
:100B3000DF93282F30E0F901E754FD4F8491F9014C
:100B4000EB55FD4FD491F901EF56FD4FC491CC23E5
:100B5000C9F0162F81110E946D05EC2FF0E0EE0F09
:100B6000FF1FEE5FFE4FA591B4918FB7F89411115E
:100B700005C09C91ED2FE095E92302C0EC91ED2B8F
:100B8000EC938FBFDF91CF911F910895CF93DF93A7
:100B900090E0FC01EB55FD4F2491FC01EF56FD4F19
:100BA0008491882361F190E0880F991FFC01E8503F
:100BB000FF4FC591D491FC01EE5FFE4FA591B4911A
:100BC000611109C09FB7F89488812095822388839A
:100BD000EC912E230BC0623061F49FB7F8943881FA
:100BE000822F809583238883EC912E2B2C939FBF9B
:100BF00006C08FB7F894E8812E2B28838FBFDF9132
:100C0000CF9108958F929F92AF92BF92CF92DF9231
:100C1000EF92FF926B017C010E9436034B015C0155
:100C2000C114D104E104F104F1F00E943603DC01A7
:100C3000CB0188199909AA09BB09883E9340A105EF
:100C4000B10570F321E0C21AD108E108F10888EE7D
:100C5000880E83E0981EA11CB11CC114D104E104CC
:100C6000F10419F7DDCFFF90EF90DF90CF90BF90A8
:100C7000AF909F908F9008952FB7F8946091BF0127
:100C80007091C0018091C1019091C2012FBF089560
:100C90001F920F920FB60F9211242F933F938F93B1
:100CA0009F93AF93BF938091BF019091C001A0919A
:100CB000C101B091C2013091BE0123E0230F2D3755
:100CC00020F40196A11DB11D05C026E8230F029650
:100CD000A11DB11D2093BE018093BF019093C0015F
:100CE000A093C101B093C2018091C3019091C4014E
:100CF000A091C501B091C6010196A11DB11D8093BF
:100D0000C3019093C401A093C501B093C601BF91E4
:100D1000AF919F918F913F912F910F900FBE0F90A8
:100D20001F9018952F923F924F925F926F927F92F1
:100D30008F929F92AF92BF92CF92DF92EF92FF92EB
:100D40000F931F93CF93DF9300D000D000D0CDB787
:100D5000DEB75C016B0167E371E0CE0101960E9492
:100D60005C04BE016F5F7F4FC6010E94DA0E4C012A
:100D7000CE0101960E944E042FEF8216920629F4AE
:100D800060E070E080E090E0A4C085E0880E911CF7
:100D9000D60114960D911C9115978016910678F442
:100DA0006D907C906AE370E0C301880D991D0E94EC
:100DB0006C1E009721F07C01E618F70803C0EE24B2
:100DC000EA94FE2C17010F2C000C44085508BFEFC5
:100DD0002B163B064B065B0699F28016910680F4B3
:100DE000F601608071806CE270E0C301880D991D8E
:100DF0000E946C1E009721F08C010619170902C091
:100E00000FEF1FEFC801012E000CAA0BBB0B8F3F89
:100E1000FFEF9F07AF07BF07A1F182159305A40558
:100E2000B5057CF59801A401B601CE0101960E949A
:100E3000940ECE0101960E94890E962ECE01019647
:100E40000E944E0424E0291508F49ACFA8014F5FB0
:100E50005F4F9701B601CE0101960E94940ECE011C
:100E600001960E94890E6B017C01CE0101960E94C1
:100E70004E041C141D041E041F040CF081CF892D88
:100E800018C09701A401B601CE0101960E94940EEC
:100E9000CE0101960E94890E6B017C01CE01019664
:100EA0000E944E041C141D041E041F040CF068CF85
:100EB0008FEFD5011296ED91FC911397309739F091
:100EC00014962D913C911597B701A6010995B6018D
:100ED000C70126960FB6F894DEBF0FBECDBFDF91D7
:100EE000CF911F910F91FF90EF90DF90CF90BF9027
:100EF000AF909F908F907F906F905F904F903F90BA
:100F00002F9008952F923F924F925F926F927F920F
:100F10008F929F92AF92BF92CF92DF92EF92FF9209
:100F20000F931F93CF93DF93EC011B014A015901EB
:100F3000270138016DE671E00E945C040E943C06C6
:100F40006B017C010E943C06DC01CB018C199D09E0
:100F5000AE09BF0984159505A605B705B8F5D101F9
:100F60008D919C91DC01ED91FC910084F185E02D47
:100F700009951816190634F7D1018D919C91DC0161
:100F8000ED91FC910284F385E02D0995882339F3D6
:100F9000682FCE010E94CE03B401CE010E94DA0E6A
:100FA0000196A1F4B501CE010E94DA0E019671F40A
:100FB000BE01C1010E949206672B682B692B79F252
:100FC0006DE671E0CE010E94FE03C9CFCE01DF9134
:100FD000CF911F910F91FF90EF90DF90CF90BF9036
:100FE000AF909F908F907F906F905F904F903F90C9
:100FF0002F9008954F925F926F927F928F929F925F
:10100000AF92BF92CF92DF92EF92FF920F931F9316
:10101000CF93DF93EC017B016A01480159016DE632
:1010200071E00E945C040E943C062B013C010E947E
:101030003C06DC01CB0184199509A609B70988157E
:101040009905AA05BB0588F5F70180819181DC012E
:10105000ED91FC910084F185E02D09951816190693
:1010600034F7D7018D919C91DC01ED91FC910284C4
:10107000F385E02D0995882339F3682FCE010E946E
:10108000CE03B601CE010E94DA0E019671F4BE01C4
:10109000C7010E949206672B682B692BA9F26DE6A7
:1010A00071E0CE010E94FE03CFCFCE01DF91CF9140
:1010B0001F910F91FF90EF90DF90CF90BF90AF9076
:1010C0009F908F907F906F905F904F9008952F9298
:1010D0003F924F925F926F927F928F929F92AF92C8
:1010E000BF92CF92DF92EF92FF920F931F93CF9315
:1010F000DF93CDB7DEB762970FB6F894DEBF0FBEB1
:10110000CDBF2C013B014A01190158016DE671E088
:10111000CE0101960E945C04B301CE0107960E94A5
:10112000530497018601AE01495F5F4FB201CE01C2
:101130000D960E94FA07BE01635F7F4FCE010196B4
:101140000E941504CE010D960E944E04CE01079612
:101150000E944E04B301CE0101960E94DA0E019660
:1011600009F494C0B401CE0101960E94DA0E2C015C
:10117000990F66087708B101CE0101960E94DA0E38
:101180009C01092E000CAA0BBB0B4FEF4416540612
:101190006406740679F08F3F9F4FAF4FBF4F21F128
:1011A000F40184819581B301A201480F591F611D8B
:1011B000711D07C08F3F9F4FAF4FBF4FA9F040E059
:1011C00050E0BE016F5F7F4FCE0107960E94940EE4
:1011D000BE01695F7F4FC5010E941504CE010796CD
:1011E0000E944E0411E059C06DE371E0CE010796F4
:1011F0000E945C04BE01695F7F4FC5010E94DA0E48
:101200004C01CE0107960E944E042FEF82169206E3
:10121000A1F0940140E050E0BE016F5F7F4FCE012E
:1012200007960E94940EBE01695F7F4FC5010E9420
:101230001504CE0107960E944E046FE371E0CE01C3
:1012400007960E945C04BE01695F7F4FC5010E9442
:10125000DA0E4C01CE0107960E944E044FEF841621
:101260009406A1F0940140E050E0BE016F5F7F4F13
:10127000CE0107960E94940EBE01695F7F4FC501A3
:101280000E941504CE0107960E944E04BE016F5FB6
:101290007F4FC5010E94B70310E0CE0101960E9466
:1012A0004E04812F62960FB6F894DEBF0FBECDBFFD
:1012B000DF91CF911F910F91FF90EF90DF90CF9032
:1012C000BF90AF909F908F907F906F905F904F9066
:1012D0003F902F900895CF92DF92EF92FF920F935D
:1012E0001F93CF93DF93CDB7DEB766970FB6F89411
:1012F000DEBF0FBECDBF6C017B016DE671E0CE019C
:1013000001962B8B3C8B4D8B5E8B0E945C04B7014E
:10131000CE0107960E9453042B893C894D895E8932
:1013200089019A01AE01495F5F4FB601CE010D966A
:101330000E94FA07BE01635F7F4FCE0101960E94B3
:101340001504CE010D960E944E04CE0107960E9410
:101350004E04B701CE0101960E94DA0E7C01CE0147
:1013600001960E944E0481E0EF20E09409F480E0B1
:1013700066960FB6F894DEBF0FBECDBFDF91CF915A
:101380001F910F91FF90EF90DF90CF900895CF9233
:10139000DF92EF92FF920F931F93CF93DF9300D0D2
:1013A00000D000D0CDB7DEB78C016DE671E0CE0184
:1013B00001960E945C040E943C066B017C010E9425
:1013C0003C06AB01BC014C195D096E097F094A302E
:1013D00051056105710570F5D8018D919C91DC0175
:1013E000ED91FC910084F185E02D0995892B39F36D
:1013F000F80180819181DC01ED91FC910284F385FB
:10140000E02D09958823D9F2682FCE0101960E941C
:10141000CE03BE016F5F7F4FC8010E949206672B0B
:10142000682B692B41F26DE671E0CE0101960E94B6
:10143000FE03C1CFCE0101960E944E0426960FB640
:10144000F894DEBF0FBECDBFDF91CF911F910F91FA
:10145000FF90EF90DF90CF900895CF92DF92EF92C0
:10146000FF920F931F93CF93DF93CDB7DEB7C65A8A
:10147000D1090FB6F894DEBF0FBECDBF6C0146E6B2
:1014800050E060E970E0CE0101960E94DA1CCE01C6
:1014900089599F4F7C0106E610E09E012F5F3F4F68
:1014A00040E050E061E1C6010E94C20CCA55DF4F26
:1014B0000FB6F894DEBF0FBECDBFDF91CF911F9165
:1014C0000F91FF90EF90DF90CF9008952F923F9271
:1014D0004F925F926F927F928F929F92AF92BF9244
:1014E000CF92DF92EF92FF920F931F93CF93DF93F0
:1014F000EC015B018A010E943C062B013C014E017C
:101500002DEF821A2EEF920A6E018BEFC81A8EEF22
:10151000D80AF40180819181F60120813181821BFA
:10152000930B97FD93958017910790F40E943C06CA
:10153000DC01CB0184199509A609B7098C3D9540BA
:10154000A105B10528F4888199810E94C709E1CFDE
:101550007801412C552453941E01F3E02F0E311CC9
:10156000E114F104A9F1F40180819181F601208157
:101570003181821B930B97FD9395009721F4C8014D
:101580008E199F0926C0F60160807180920126198C
:1015900037095E2D4F2D2E153F0514F4522F432F82
:1015A000C52FD42F8C179D070CF4EC01B101660DEB
:1015B000771DAE01C5010E94631E6C0E7D1E77244F
:1015C000F60171826082EC1AFD0AAC0EBD1EC8CF16
:1015D000C801DF91CF911F910F91FF90EF90DF90A5
:1015E000CF90BF90AF909F908F907F906F905F90C3
:1015F0004F903F902F900895CF92DF92EF92FF92FD
:101600000F931F93CF93DF93CDB7DEB768970FB6D5
:10161000F894DEBF0FBECDBFFC011282EB5FFE4F20
:1016200011821082329711821082FC01C080D18019
:101630006DE671E0CE0143960E945C04C6010E94F3
:10164000C7096BE770E0F601808191810E947F04F9
:1016500061E0F601808191810E947C1564E471E073
:10166000CE0107960E945C0461E471E0CE01019610
:101670000E945C0418E8E12E13E1F12E00E010E076
:101680009E01295F3F4FAE014F5F5F4FB601CE0114
:101690000D960E948207BE01635F7F4FCE01439685
:1016A0000E941504CE010D960E944E04CE010196B3
:1016B0000E944E04CE0107960E944E0461E471E040
:1016C000CE0107960E945C04BE01695F7F4FCE0188
:1016D00043960E94DA0E019651F464E471E0CE0163
:1016E00001960E945C04CE0101960E944E04CE0138
:1016F00007960E944E04CE0143960E944E046896BF
:101700000FB6F894DEBF0FBECDBFDF91CF911F9112
:101710000F91FF90EF90DF90CF9008950F931F935C
:10172000CF93DF93FC01228133816115710561F450
:1017300080819181A9014F5F5F4F53834283FC01F8
:10174000E20FF31F10821DC0DB010D900020E9F7AE
:101750008D01061B170BA801420F531F8481958131
:101760008417950770F0EF0180819181A801820FA5
:10177000931F0E94631E4A815B81400F511F5B8350
:101780004A83DF91CF911F910F9108950F931F937B
:10179000CF93DF93CDB7DEB762970FB6F894DEBF75
:1017A0000FBECDBF8C01CB014AE0BE016F5F7F4F02
:1017B0000E94E31CBE016F5F7F4FC8010E948E0B29
:1017C00062960FB6F894DEBF0FBECDBFDF91CF910A
:1017D0001F910F910895DC01ED91FC9111973097C5
:1017E00061F012962D913C911397E217F30728F4BC
:1017F00001900020E9F7ED93FC930895FC018081AE
:101800009181009739F0228133818217930710F478
:101810000C94951C80E090E00895E091C701F09150
:10182000C8010190F081E02D6BE587EC91E009950E
:101830000E943C06AB01BC012AE087EC91E00E94CB
:10184000B80468E670E087EC91E00C947F04AF92F6
:10185000BF92CF92DF92EF92FF920F931F93CF939D
:10186000DF9300D000D0CDB7DEB77901813009F029
:1018700078C089010B5F1E4FD8018D919C91590151
:10188000BDEFAB1ABEEFBB0AF50120813181821B8F
:10189000930B181619060CF093950197092E000C5E
:1018A000AA0BBB0B84179507A607B70708F053C010
:1018B0000E940D0C6BE670E087EC91E00F900F90AA
:1018C0000F900F90DF91CF911F910F91FF90EF90AC
:1018D000DF90CF90BF90AF900C940105D701ED91B0
:1018E000FC9180819181DC01ED91FC910084F18576
:1018F000E02D49835A836B837C83099549815A8102
:101900006B817C81892B39F1D701ED91FC9180812C
:101910009181DC01ED91FC910284F385E02D099524
:10192000D501ED91FC919F012F5F3F4F33277C81C3
:101930006B815A814981D801CD90DC902C153D05F1
:10194000D1F3EE0DFF1D8383F501318320834150D8
:10195000510961097109411551056105710509F0C8
:10196000BDCF0F900F900F900F90DF91CF911F91EF
:101970000F91FF90EF90DF90CF90BF90AF900895C0
:101980000E945E1E2F923F924F925F926F927F92C3
:101990008F929F92AF92BF92CF92DF92EF92FF927F
:1019A0000F931F93CF93DF93CDB7DEB72E970FB66C
:1019B000F894DEBF0FBECDBF7C01962E6A0159019F
:1019C0002DB73EB73A872987DC01ED91FC918281E2
:1019D000882309F4B7C0862F8D7F09F475C1B6E05E
:1019E0006B1709F471C1EDE16E1709F46DC1D701F0
:1019F00057968D919C915897019709F0A3C0452B5C
:101A000039F4F701C488D588C114D10409F4A2C0FF
:101A100084EF890D893008F4ACC0A114B10409F435
:101A2000E4C01801B5E02B0E311CEDB7FEB7E2198A
:101A3000F3090FB6F894FEBF0FBEEDBF2DB73EB74A
:101A40002F5F3F4F38872F839182DC24CD24DC2405
:101A5000D9011296DC92CE921197902F812F149675
:101A60009C938E931397A114B10409F0C1C0A12CCB
:101A7000B12CA214B30408F00BC181010A191B098F
:101A80000832110510F008E210E02801612C712CD9
:101A9000D701ED91FC91C080D180C6010E94C70999
:101AA00068E672E0F601808191810E947F042AE05D
:101AB00041E050E060E070E0D6018D919C910E9481
:101AC000B80466E672E0F601808191810E947F048D
:101AD000D6018D909C902AE0B301A201C4010E941E
:101AE000B8046BE671E0C4010E94A30460E571E0F4
:101AF000CE0101960E945C0428E833E140E050E00A
:101B0000BE016F5F7F4FC6010E946B09982ECE0108
:101B100001960E944E04911077C000E010E060E052
:101B200070E0CB010E9402060115110509F0ADC05D
:101B3000F701808191810E94FC0AD70158961C927E
:101B40001E92579729853A850FB6F8943EBF0FBE6F
:101B50002DBFBFC082899389019619F0938B828B28
:101B600004C081E090E0938B828BF701C288D38818
:101B70004FCFD70116964D915D916D917C9119973C
:101B80001A968D919D910D90BC91A02D841795076B
:101B9000A607B70710F4DB01CA012C013D01E2E4FE
:101BA0004E0E511C611C711C0E943C06A301920147
:101BB000261B370B480B590B57FD0EC0C7010E945F
:101BC000F40E0E943C06A3019201261B370B480B22
:101BD000590B57FFF3CF21CFD70156968C91811126
:101BE0001CCFC7010E94F40E18CF212C312C1ACF24
:101BF0000115110509F43BCF8DB79EB70696A801D4
:101C0000B5010E94631E33CFC6010E94C7098F80B1
:101C100098848A0C9B1C20E030E0A901241535052E
:101C200046055705D0F4F60180819181D4016D916C
:101C30004D01DC01ED91FC910190F081E02D2B87AD
:101C40003C874D875E8709952B853C854D855E8554
:101C50002F5F3F4F4F4F5F4FE1CF62E571E0CE0105
:101C600001960E945C0420E137E240E050E0BE01B2
:101C70006F5F7F4FC6010E946B09D82ECE0101967F
:101C80000E944E04D1104BCF48CFA00EB11EF1CE12
:101C9000A214B30441F0F701108E178A808191815C
:101CA0000E94FC0A4FCF0E943C06D7011A966D9302
:101CB0007D938D939C931D97E985FA850FB6F894D3
:101CC000FEBF0FBEEDBF05C0C114D10409F0A5CE03
:101CD00098CE49855A850FB6F8945EBF0FBE4DBFAA
:101CE0002E960FB6F894DEBF0FBECDBFDF91CF9119
:101CF0001F910F91FF90EF90DF90CF90BF90AF902A
:101D00009F908F907F906F905F904F903F902F901B
:101D10000895FC0180819181009711F00C94B31C0F
:101D200060E070E0CB010895BF92CF92DF92EF9216
:101D3000FF920F931F93CF93DF937C016B018A0176
:101D4000E9012417350720F4812F8901C42FD82FEA
:101D50006DE671E0C7010E945C04D60114968D9176
:101D60009C91159708171907D0F48C179D0708F454
:101D7000EC01D601ED91FC911197EC0FFD1FB080A5
:101D800010824D915C91BA01600F711FC7010E94D2
:101D9000FE03D601ED91FC91EC0FFD1FB082C7014F
:101DA000DF91CF911F910F91FF90EF90DF90CF9037
:101DB000BF900895CF93DF93FC0124813581232BBD
:101DC00071F0FB01DC01CD91DC9160817181CE016C
:101DD0000E94961E009719F08C1B9D0B02C08FEF7E
:101DE0009FEFDF91CF9108952F923F924F925F9294
:101DF0006F927F928F929F92AF92BF92CF92DF921B
:101E0000EF92FF920F931F93CF93DF93CDB7DEB77F
:101E1000A3970FB6F894DEBF0FBECDBF6C010DB710
:101E20001EB71BA30AA360E070E0CB010E9402066C
:101E3000D60157968D919C915897029709F44BC102
:101E400056968C9156978F5F56968C9356975496CC
:101E50002D913C915597232B19F06624639433C13F
:101E60008330D8F7D601ED91FC917280711011C0CA
:101E70000E943C064B015C01F60180819181DC01EE
:101E800012966C902789308D2130310509F08FC072
:101E90001FC0FE0131965F0180E1882E912CD60192
:101EA0000D911C91F801808191810E94C709F80170
:101EB000ED5FFE4F80819181329620813181821BBE
:101EC000930B97FD9395181619060CF406C1D0CF05
:101ED000611009C086869786A08AB18A108E178AFB
:101EE0000E94FC0AF0C0F60186819781A085B18529
:101EF00095018401081B190B2A0B3B0BD901C80162
:101F000089331AE49107A105B10590F00E940D0CE8
:101F100066EC73E087EC91E00E940105D6015896CB
:101F20001C921E9257978D919C910E94FC0A65C04D
:101F300081319742A105B10598F4F6018285938518
:101F4000A485B58595018401081B190B2A0B3B0B51
:101F5000D901C80181319742A105B10508F47DCFAF
:101F6000F60186859785A089B18995018401081BB2
:101F7000190B2A0B3B0BD901C801893B9B40A105DA
:101F8000B10508F46ACFE12CF12C00E010E020E06C
:101F900030E040E050E066E0C6010E94C20CD6018D
:101FA0001E968D929D92AD92BC9251978CC0232B20
:101FB00009F053CFF60146855785608971896620FF
:101FC000F1F0841A950AA60AB70AF9EB8F16FBE01E
:101FD0009F06A104B10408F440CF0E940D0C68EBE9
:101FE00073E087EC91E00E940105D6018D919C91F0
:101FF0000E94FC0AF601108E178A612C64C09501BC
:102000008401041B150B260B370BB901A8014938B5
:1020100053416105710508F420CF0E94FC0AD601E6
:102020000D911C91F801E95FFE4F6081718161158E
:10203000710531F4F60186869786A08AB18A43C07D
:10204000F801E75FFE4FE080F180E114F10491F3C5
:10205000CE0101960E945C04970140E050E0BE0171
:102060006F5F7F4FD8018D919C910E94A815F80158
:102070008283CE0101960E944E04D80112967C9074
:102080007720C1F281E090E0F601938B828B228170
:102090003381F90101900020E9F731978F01021B8C
:1020A000130BE12CF12C41E050E06DE1C6010E94E0
:1020B000C20CF60182859385A485B58586879787AE
:1020C000A08BB18B672CD60156968C915697815078
:1020D00056968C9344C4612C42C445E050E0BE0146
:1020E000695E7F4FD6018D919C910E94660A009790
:1020F00009F404C4059709F088C0888D998D982744
:1021000089279827998F888FEA8CFB8CFE24EF24EF
:10211000FE24FB8EEA8E892B09F477C08F8981110A
:102120007AC00E943C06F601668377838087918798
:102130002789308D8A8D9B8D232B09F068C0288DCF
:10214000398D2130310509F062C08930910509F4DB
:1021500040C0883C910519F0049709F04AC00E94DC
:102160000D0C69E772E087EC91E00E947F04D601D4
:1021700016964D915D916D917C9119971E968D915A
:102180009D910D90BC91A02D481B590B6A0B7B0BA8
:102190002AE087EC91E00E94B80464E772E087ECE3
:1021A00091E00E940105F60186819781A085B185A5
:1021B00086879787A08BB18B01E010E0108F078B8B
:1021C000C6010E942D0A60E070E0CB010E94020669
:1021D00095C30E940D0C65EA73E087EC91E00E94C4
:1021E000010583E090E0D60158969C938E93579713
:1021F0000CC00E940D0C6EE873E087EC91E00E9429
:102200007F048A8D9B8D0E94F016612C7AC30597FE
:1022100009F045CEFACFB1E0EB16FB06A0F00E9424
:102220000D0C6DE773E087EC91E00E947F048A8DCE
:102230009B8D0E94F016F601108E178A8081918185
:102240000E94FC0A5BC30DB71EB719A308A3C70100
:1022500001962DB73EB7281B390B0FB6F8943EBF39
:102260000FBE2DBF0DB71EB70F5F1F4FA701B801DF
:10227000D6018D919C910E94660AE816F90609F034
:1022800032C3EA8DFB8DE00FF11F10820E943C06E5
:10229000F60166837783808791878F89813109F47E
:1022A000F9C248F4863081F18F3009F4C3C082301E
:1022B00009F00FC30DC08D3159F020F4843109F4B9
:1022C000B9C007C3893269F1873309F4F2C201C387
:1022D000D60157968D919C915897892BA9F40E940D
:1022E0000D0C67E773E087EC91E00E94010501E0C7
:1022F00010E0F601108F078BC6010E942D0A60E0E6
:1023000070E0CB010E940206488D598DE12CF12C22
:1023100008EC10E020E030E060E0C6010E94C20C52
:10232000E4C284819581892B39F480E290E00E9497
:10233000681BF60195838483EA8CFB8CE00EF11E0A
:102340001A830983FC82EB820E151F0508F0CBC2AD
:1023500040E250E0B801D60114968D919C911597FA
:102360000E94871EC5010E94EB0BFC0180819181B8
:102370008E159F0578F489819A81009731F02B8121
:102380003C818217930708F4C0C260E070E0CB0183
:102390008B0102C000E510E00E940D0C67E673E0BF
:1023A00087EC91E00E947F04D60114966D917C9198
:1023B000159787EC91E00E94A304E091C701F0918A
:1023C000C8010190F081E02D6AE387EC91E0099566
:1023D000C8010E94F016F601808191810E94FC0ADA
:1023E000D6018D919C911197FC01E95FFE4F1496E7
:1023F0002D913C9115973183208332961183008370
:1024000058961C921E9257970E943C06DC01CB0105
:1024100088589341A109B109F60182879387A4875F
:10242000B58786839783A087B18786879787A08B98
:10243000B18B5BC2888D998DD60155969C938E93F6
:1024400054974A8C5B8C7801E40CF51C1D8F0C8F23
:10245000FF8EEE8E0E151F0508F018C2F8012080C1
:102460003180CE014C960E94EB0BDC018D919C914A
:102470008E159F0508F00AC28C8D9D8DFC01208170
:10248000213459F401960E94951C863091050CF078
:102490008AC15EE0652E680E05C0CE014C960E9492
:1024A000FE0B682EF6E72F16F2E73F0609F483C10C
:1024B00098F431E6231632E7330609F4C7C044E640
:1024C000241642E7340609F464C050E725165DE699
:1024D000350609F0C1C135C084E6281687E73806FD
:1024E00009F49CC096E7291697E7390609F485C1D7
:1024F000A1E62A16A7E73A0609F0AEC1EAC0FC0138
:102500002081213421F501960E94951C8630910589
:1025100024F54EE0642E680ECE014C960E94EB0B23
:102520000C8D1D8D6AE871E0C8010E94771E892B11
:10253000B9F460E0862D0E94C605CE014C960E943B
:10254000EB0B8C8D9D8D8E159F05C8F29FC1CE0122
:102550004C960E94FE0B682EDFCF66246A94DCCF77
:102560006DE871E0C8010E94771E892B09F4EBC168
:1025700061E971E0C8010E94771E892B09F4E3C16B
:10258000E4C124E6221622E7320609F05FC1662480
:102590006A94BA8AA98A1C8A1B8A9E8A8D8A65E9EE
:1025A00071E0CE0141960E948E0B062D10E0B8011D
:1025B000CE0141960E94C60BF801E754FD4F84916D
:1025C000F801EB55FD4FF490F801EF56FD4F0491E3
:1025D000002399F081110E946D05E02FF0E0EE0FCD
:1025E000FF1FE957FD4FA591B491EC91FE2261E0E8
:1025F00070E009F056C060E054C060E070E051C087
:10260000E7E72E16E2E73E0608F482C144E6241608
:1026100047E7340609F0E9C066246A94CE014C9677
:102620000E94EB0BDC018D919C918E159F0508F0AB
:102630002DC161E0862D0E94C605CE014C960E94F8
:10264000FE0B61E0892B09F064C0ABC0BA8AA98A8D
:102650001C8A1B8A9E8A8D8A68E971E0CE014196A8
:102660000E948E0B662D70E0CE0141960E94C60B33
:10267000BDE0B61510F4E2EF6E0E862D8770806413
:1026800080937C0080917A00806480937A008091AE
:102690007A0086FDFCCF609178008091790070E02F
:1026A000782BCE0141960E94C60B0B891C890150E4
:1026B000110929893A89E12CF12C40E050E064E1CC
:1026C000E2C081E6281687E7380609F0C5C066240F
:1026D0006A94CE014C960E94EB0BDC018D919C918B
:1026E0008E159F0508F0D2C061E0862D0E94C605B8
:1026F000CE014C960E94FE0B8C0161E0862D0E945B
:10270000C6050115110509F44CC00F3F110529F448
:1027100061E0862D0E949605B9C0E62DF0E0E754F1
:10272000FD4FE491E330F9F048F4E130B9F0E230E4
:10273000A1F584B5806284BD08BDA8C0E730E9F08A
:10274000E83019F1E43049F580918000806280938F
:10275000800010938B0000938A0098C084B5806835
:1027600084BD07BD93C08091800080688093800005
:10277000109389000093880089C08091B000806820
:102780008093B0000093B30081C08091B00080625C
:102790008093B0000093B40079C0003811050CF0AC
:1027A000B7CF60E0B6CFB6E72B16B2E73B0609F02D
:1027B00027CF66246A946982BFE1B61508F466C023
:1027C000E62DF0E0EE0FFF1FE353FD4F259134910E
:1027D0002115310509F45AC0E3E02C353E0709F410
:1027E00055C0C501F901099551C056E7251657E7AF
:1027F000350609F066CF66246A94CE014C960E9495
:10280000EB0B8C8D9D8D081B190B400E511E9A836E
:1028100089835C824B825E824D82698AFFE1F61574
:10282000A8F1E62DF0E0EE0FFF1FE35FFC4F2591CE
:1028300034912115310551F103E02B35300731F189
:10284000B501CE014196F901099520C030E7231664
:102850003DE6330609F475CE0E940D0C6DE473E07D
:1028600087EC91E00E947F04C8010E949515D60173
:1028700054964D915C915597E12CF12C02E010E0BB
:1028800020E030E060E0C6010E94C20CF601158A2B
:10289000148A2BC08A8D9B8D800F911F1A83098308
:1028A0009C838B830817190700F5C5010E94EB0B69
:1028B0001CC08A8D9B8D892BC1F00E940D0C6EE58A
:1028C00073E087EC91E00E947F04C8010E94951597
:1028D0000CC0D60158961C921E9257978D919C91D0
:1028E0000E94FC0A02C0612C01C0672CE8A1F9A17A
:1028F0000FB6F894FEBF0FBEEDBF01C0672C61108C
:10290000CECAD6018D919C91EBCA0E94B31C40CDDA
:10291000F1E62F16F2E73F0609F033CEBA8AA98A0C
:102920001C8A1B8A9E8A8D8A68E971E0CE014196D5
:102930000E948E0B6FEF70E0CE0141960E94C60B95
:1029400066246A9498CE61E0F5CD6BE971E0C80128
:102950000E94771E892B09F0F0CD62E0EBCD862D29
:10296000EAA1FBA10FB6F894FEBF0FBEEDBFA39680
:102970000FB6F894DEBF0FBECDBFDF91CF911F9190
:102980000F91FF90EF90DF90CF90BF90AF909F900E
:102990008F907F906F905F904F903F902F90089511
:1029A000CF92DF92EF92FF920F931F93CF93DF931B
:1029B000CDB7DEB7A4970FB6F894DEBF0FBECDBF7C
:1029C0006C018B01BA01CE0149960E945304B801F3
:1029D000CE014F960E9453046DE671E0CE014396FE
:1029E0000E945C04C6010E94C70965EF73E0F6010E
:1029F000808191810E947F04BE01615E7F4FF6015C
:102A0000808191810E94710461EF73E0F601808101
:102A100091810E947F04BE01675E7F4FF601808135
:102A200091810E9471046FEE73E0F60180819181C3
:102A30000E9401056EE971E0CE0107960E945C04D8
:102A400061E471E0CE0101960E945C0410E1E12E88
:102A500017E2F12E00E010E09E01295F3F4FAE012A
:102A60004F5F5F4FB601CE010D960E948207BE01F7
:102A7000635F7F4FCE0143960E941504CE010D96F1
:102A80000E944E04CE0101960E944E04CE0107968C
:102A90000E944E0461E471E0CE0101960E945C0444
:102AA000BE016F5F7F4FCE0143960E94DA0E6C012C
:102AB000CE0101960E944E04CE0143960E944E0420
:102AC000CE014F960E944E04CE0149960E944E04BC
:102AD00081E0CD20C09409F480E0A4960FB6F8946C
:102AE000DEBF0FBECDBFDF91CF911F910F91FF9041
:102AF000EF90DF90CF9008950F931F93CF93DF93C4
:102B0000EC01462F50E060E070E02AE00E94B8043B
:102B10008C016BE671E0CE010E94A304800F911F2F
:102B2000DF91CF911F910F910895CF93DF93BC0157
:102B300087EC91E00E94A304EC016BE671E087EC66
:102B400091E00E94A3048C0F9D1FDF91CF91089507
:102B50008F929F92AF92BF92CF92DF92EF92FF92AD
:102B60000F931F93CF93DF93CDB7DEB7AA970FB61E
:102B7000F894DEBF0FBECDBF8C0149015A01CE01D2
:102B80004F960E94530463EA71E0CE0185960E943D
:102B90005C046DE671E0CE0149960E945C04C801B8
:102BA0000E94C70962EE73E0D8018D919C910E944A
:102BB0007F042AE041E050E060E070E0F8018081AD
:102BC00091810E94B8046FED73E0D8018D919C91C2
:102BD0000E947F04BE016B5D7F4FF801808191816F
:102BE0000E9471046BED73E0D8018D919C910E945D
:102BF0007F04BE01615E7F4FF801808191810E9458
:102C0000710468ED73E0D8018D919C910E947F045E
:102C1000F801E080F1802AE0B501A401C7010E941B
:102C2000B8046BE671E0C7010E94A30467EA71E093
:102C3000CE010D960E945C0467EB71E0CE01079611
:102C40000E945C0461E471E0CE0101960E945C0484
:102C50006DE671E0CE0143960E945C040E943C0642
:102C60006B017C010E943C06DC01CB018C199D09A3
:102C7000AE09BF0980319742A105B105A0F1BE019F
:102C80006D5E7F4FCE0149960E941504CE0143969A
:102C90000E944E04CE0101960E944E04CE0107967A
:102CA0000E944E04CE010D960E944E0461E471E034
:102CB000CE0107960E945C04BE01695F7F4FCE0182
:102CC00049960E94DA0E019609F065C04EC0D801FF
:102CD0008D919C91DC01ED91FC910284F385E02DB6
:102CE000099581110EC0D8018D919C91DC01ED9167
:102CF000FC910084F185E02D0995181619063CF326
:102D0000B1CF682FCE0143960E94CE03BE016F5F04
:102D10007F4FCE0143960E94DA0E019609F0AFCFA5
:102D2000BE01695F7F4FCE0143960E94DA0E019685
:102D300009F0A5CFBE01635F7F4FCE0143960E948D
:102D4000DA0E019609F09BCFBE016D5E7F4FC80180
:102D50000E949206672B682B692B29F26DE671E0C1
:102D6000CE0143960E94FE03BECF67EA71E0CE011A
:102D700001960E945C04BE016F5F7F4FCE014996B1
:102D80000E94DA0E11E0019609F410E0CE010196DE
:102D90000E944E0401C011E0CE0107960E944E042D
:102DA000CE0149960E944E04CE0185960E944E04A3
:102DB000CE014F960E944E04812FAA960FB6F8942A
:102DC000DEBF0FBECDBFDF91CF911F910F91FF905E
:102DD000EF90DF90CF90BF90AF909F908F9008952D
:102DE000CF93DF93AC0160E070E02AE087EC91E0E4
:102DF0000E94B804EC016BE671E087EC91E00E9460
:102E0000A3048C0F9D1FDF91CF910895CF93DF9383
:102E1000CDB7DEB76E970FB6F894DEBF0FBECDBF4D
:102E2000789484B5826084BD84B5816084BD85B5A5
:102E3000826085BD85B5816085BD80916E008160B1
:102E400080936E0010928100809181008260809357
:102E50008100809181008160809381008091800059
:102E60008160809380008091B10084608093B10084
:102E70008091B00081608093B00080917A0084607E
:102E800080937A0080917A00826080937A008091AA
:102E90007A00816080937A0080917A0080688093C4
:102EA0007A001092C100E091D701F091D80102E0C0
:102EB0000083E091D301F091D4011082E091D5011B
:102EC000F091D6018FEC80831092DF01E091DB015D
:102ED000F091DC0116E01083E091D901F091DA0164
:102EE000808180618083E091D901F091DA01808155
:102EF00088608083E091D901F091DA018081806857
:102F00008083E091D901F091DA0180818F7D808307
:102F10006AE070E080E090E00E940206E091D70154
:102F2000F091D8010083E091D301F091D401108297
:102F3000E091D501F091D60180E180831092DF010C
:102F4000E091DB01F091DC011083E091D901F09177
:102F5000DA01808180618083E091D901F091DA010A
:102F6000808188608083E091D901F091DA018081CD
:102F700080688083E091D901F091DA0180818F7DB2
:102F800080836AE070E080E090E00E94020686E1C3
:102F900091E090936D0280936C020E943C06DC01EC
:102FA000CB0188589341A109B10980937402909391
:102FB0007502A0937602B09377028093700290938B
:102FC0007102A0937202B09373028093780290937F
:102FD0007902A0937A02B0937B020E940D0C65EDFA
:102FE00071E087EC91E00E94010584E692E0909305
:102FF000840280938302E0916A02F0916B029183D4
:10300000808387E29CE09093670280936602F0934E
:103010006902E0936802DF01A95FBE4F8AE591E093
:103020008D939C93E75FFE4F80E590E091838083D2
:1030300064EF71E080E090E00E9402060E940D0CB7
:1030400066EC71E087EC91E00E947F048DE091E0F6
:103050000E949515A0908302B0908402C5010E9441
:10306000C70968E571E0F501808191810E94010541
:1030700061E471E0CE0101960E945C0428EE33E029
:1030800040E050E0BE016F5F7F4FC5010E946B09B9
:10309000182FCE0101960E944E04111105C00E9406
:1030A0000D0C60EB71E02FC0A0908302B090840201
:1030B000C5010E94C70964E571E0F5018081918135
:1030C0000E947F0460E0F501808191810E947C155F
:1030D00061E471E0CE0101960E945C0428EE33E0C9
:1030E00040E050E0BE016F5F7F4FC5010E946B0959
:1030F000982ECE0101960E944E04911009C00E94A4
:103100000D0C6DE371E087EC91E00E9401051EC299
:10311000A0908302B09084026DE671E0CE014996E2
:103120000E945C04C5010E94C70968EB7BE080E057
:1031300090E00E94020666E371E0F50180819181D2
:103140000E9401056DE371E0CE0101960E945C04CE
:103150006AE671E0CE0107960E945C0461E471E0CA
:10316000CE010D960E945C0430E1C32E37E2D32ECF
:10317000E12CF12C8E01075E1F4F9E012F5F3F4F08
:10318000AE01495F5F4FBE01635F7F4FC5010E9483
:103190006708CE010D960E944E04CE0107960E944C
:1031A0004E04CE0101960E944E040E940D0CB801FF
:1031B00087EC91E00E9471046BE671E087EC91E08E
:1031C0000E94A304A0908302B09084026DE671E097
:1031D000CE0143960E945C04C5010E94C7096BE2C0
:1031E00071E0F501808191810E947F0461E0F50129
:1031F000808191810E947C156EE671E0CE01079678
:103200000E945C0461E471E0CE0101960E945C04BE
:1032100018EEE12E13E0F12E00E010E09E01295F90
:103220003F4FAE014F5F5F4FB501CE010D960E943B
:103230008207BE01635F7F4FCE0143960E94150453
:10324000CE010D960E944E04CE0101960E944E04BE
:10325000CE0107960E944E0461E471E0CE01019612
:103260000E945C04BE016F5F7F4FCE0143960E94B7
:10327000DA0E8C01CE0101960E944E04CE014396D7
:103280000E944E040F3F1F4F41F40E940D0C6BE94A
:1032900071E087EC91E00E940105A0908302B0905C
:1032A00084026DE671E0CE0143960E945C04C50184
:1032B0000E94C70960E271E0F501808191810E945E
:1032C00001056DE371E0CE010D960E945C046EE78E
:1032D00071E0CE0107960E945C0461E471E0CE01CA
:1032E00001960E945C0428EEC22E23E0D22EE12C2F
:1032F000F12C8E010D5E1F4F9E01235F3F4FAE01EB
:10330000495F5F4FBE016F5F7F4FC5010E94670835
:10331000182FCE0101960E944E04CE0107960E94FE
:103320004E04CE010D960E944E04112331F0CE01C1
:1033300043960E94890E862E01C0912CCE014396A1
:103340000E944E04992009F427C1F1E08F1609F478
:1033500076C06DE671E0CE0143960E945C04C50123
:103360000E94C70965E171E0F501808191810E94A9
:103370007F0461E0F501808191810E947C1560E805
:1033800071E0CE0107960E945C0461E471E0CE0119
:103390000D960E945C0418EEE12E13E0F12E00E081
:1033A00010E09E01295F3F4FAE01435F5F4FB501C3
:1033B000CE0101960E948207BE016F5F7F4FCE0152
:1033C00043960E941504CE0101960E944E04CE0140
:1033D0000D960E944E04CE0107960E944E0461E4B1
:1033E00071E0CE0101960E945C04BE016F5F7F4FC9
:1033F000CE0143960E94DA0E0196B1F460E871E0C6
:10340000CE0107960E945C04BE01695F7F4FCE012A
:1034100043960E94DA0E99249394019609F4912C14
:10342000CE0107960E944E04CE0101960E944E04E2
:10343000CE0143960E944E04992009F4ADC060E08D
:1034400071E0CE0107960E945C046DE071E0CE0150
:1034500001960E945C04AE01495F5F4FBE016F5F41
:103460007F4F80918302909184020E94D014182F84
:10347000CE0101960E944E04CE0107960E944E0492
:10348000112309F48EC0A0908302B09084026DE6EF
:1034900071E0CE0143960E945C04C5010E94C709F9
:1034A0006CE071E0F501808191810E9401056DE37E
:1034B00071E0CE0101960E945C046AE671E0CE01E3
:1034C00007960E945C0461E471E0CE010D960E94B3
:1034D0005C0488EEC82E83E0D82EE12CF12C8E01FE
:1034E0000D5E1F4F9E012F5F3F4FAE01495F5F4F43
:1034F000BE01635F7F4FC5010E946708CE010D9634
:103500000E944E04CE0107960E944E04CE01019601
:103510000E944E040E940D0CB80187EC91E00E94BD
:1035200071046BE671E087EC91E00E94A304C8018E
:103530000E944E040E940D0C62E771E087EC91E05E
:103540000E940105CE0149960E944E0480916A02B4
:1035500090916B020E94FC0A1092820210928102EA
:103560000E943C064B015C01809181029091820295
:103570000197E1F00E943C06DC01CB018819990912
:10358000AA09BB0988329342A105B10578F48AE6FD
:1035900092E00E94F40EE8CF0E940D0C64E871E006
:1035A000CDCF0E940D0C6BE571E0C8CF80918102F8
:1035B00090918202019751F68AE692E00E94F40E01
:1035C0000E942C03F9CFCF93DF93E7ECF1E0138255
:1035D000128288EE93E0A0E0B0E084839583A68316
:1035E000B78389E291E09183808385EC90E09587B1
:1035F000848784EC90E09787868780EC90E0918BBD
:10360000808B81EC90E0938B828B82EC90E0958BA9
:10361000848B86EC90E0978B868B118E128E138EA6
:10362000148EC5E8D2E0198218821A8210928B0398
:1036300010928A03109289031092880310928D03CE
:1036400010928C0310928F0310928E03AAE6B2E0C0
:103650001196DC93CE9313961C921E921297159698
:103660001C921E92149716961D921D921D921C92EA
:1036700019971A961D921D921D921C921D971E96C7
:103680001D921D921D921C92519753961C921E9250
:10369000529755961C921E92549756961C92569786
:1036A00058961C921E9257975A961C921E925997A2
:1036B000A4E6B2E01196FC93EE9313961C921E9230
:1036C000129715961C921E921497DF91CF91089530
:1036D000CF93DF938230910510F482E090E0E09187
:1036E0009203F091930320E030E0C0E0D0E0309707
:1036F00011F14081518148175907C0F04817590707
:1037000061F482819381209719F09B838A832BC077
:10371000909393038093920326C02115310519F0ED
:103720004217530718F49A01BE01DF01EF0102802E
:10373000F381E02DDCCF2115310509F1281B390B70
:103740002430310590F412968D919C911397611558
:10375000710521F0FB019383828304C0909393034E
:1037600080939203FD01329644C0FD01E20FF31FE6
:1037700081939193225031092D933C933AC020912B
:10378000900330919103232B41F42091210130913A
:103790002201309391032093900320911F013091D7
:1037A00020012115310541F42DB73EB74091230189
:1037B00050912401241B350BE0919003F09191036B
:1037C000E217F307A0F42E1B3F0B2817390778F0F8
:1037D000AC014E5F5F4F2417350748F04E0F5F1F57
:1037E00050939103409390038193919302C0E0E042
:1037F000F0E0CF01DF91CF9108950F931F93CF9306
:10380000DF93009709F48CC0FC0132971382128277
:1038100000919203109193030115110581F4208109
:103820003181820F931F20919003309191032817CB
:10383000390779F5F0939103E093900371C0D801B3
:1038400040E050E0AE17BF0750F412962D913C9126
:103850001397AD012115310509F1D901F3CF9D0170
:10386000DA013383228360817181860F971F82176B
:10387000930769F4EC0128813981260F371F2E5FE9
:103880003F4F318320838A819B8193838283452BA1
:1038900029F4F0939303E093920342C01396FC93B0
:1038A000EE931297ED01499159919E01240F351F16
:1038B000E217F30771F480819181840F951F0296BE
:1038C00011969C938E938281938113969C938E93F1
:1038D0001297E0E0F0E0D80112968D919C91139739
:1038E000009719F0F8018C01F6CF8D919C91980109
:1038F0002E5F3F4F820F931F2091900330919103D1
:103900002817390769F4309729F41092930310921D
:10391000920302C0138212821093910300939003CA
:10392000DF91CF911F910F910895FC01882799276E
:10393000E89421912032E9F3293010F02E30C8F3B9
:103940002B3241F02D3239F4689404C00E94031DDB
:10395000820F911D219120532A30C0F31EF49095BF
:1039600081959F4F08951F93FC0199278827BC01DB
:10397000E89411911032E9F3193010F01E30C8F3B9
:103980001B3251F01D3249F4689406C00E94EE1CAF
:10399000610F711D811D911D119110531A30B0F3EB
:1039A0003EF490958095709561957F4F8F4F9F4F16
:1039B0001F910895FB01DC0102C005900D9241505A
:1039C0005040D8F70895BB274A3031F4992322F4A8
:1039D000BDE2909581959F4F0C940C1D592F482F57
:1039E000372F262F660F771F881F991F660F771FA7
:1039F000881F991F620F731F841F951F660F771F03
:103A0000881F991F08957AE0979F902D879F802D9A
:103A1000910D11240895BB27FB015527AA27880F74
:103A2000991FAA1FA41710F0A41B83955051B9F732
:103A3000A05DAA3308F0A95DA193009779F7B111B1
:103A4000B1931192CB010C94251DDC01FC01672F71
:103A500071917723E1F7329704C07C916D93708365
:103A60006291AE17BF07C8F308952F923F924F920D
:103A70005F926F927F928F929F92AF92BF92CF92FE
:103A8000DF92EF92FF920F931F93CF93DF93CDB707
:103A9000DEB7CA1BDB0B0FB6F894DEBF0FBECDBF7F
:103AA00009942A88398848885F846E847D848C8450
:103AB0009B84AA84B984C884DF80EE80FD800C8159
:103AC0001B81AA81B981CE0FD11D0FB6F894DEBF3C
:103AD0000FBECDBFED010895A1E21A2EAA1BBB1B9C
:103AE000FD010DC0AA1FBB1FEE1FFF1FA217B307CA
:103AF000E407F50720F0A21BB30BE40BF50B661FE0
:103B0000771F881F991F1A9469F7609570958095A3
:103B100090959B01AC01BD01CF010895EE0FFF1FF1
:103B20000590F491E02D0994A0E0B0E0EAE9FDE110
:103B30000C94391DEC01009721F4CB010E94681B05
:103B4000B8C0FC01E60FF71F9C0122503109E217B3
:103B5000F30708F4ACC0D9010D911C911197061719
:103B60001707B0F00530110508F49FC0C80104978D
:103B70008617970708F499C002501109061B170B06
:103B8000019311936D937C93CF010E94FD1B8DC017
:103B90005B01A01AB10A4C01800E911EA091920304
:103BA000B091930340E050E0E12CF12C109709F420
:103BB0004AC0A815B905D1F56D907C9011976301A5
:103BC00082E0C80ED11CCA14DB0480F1A3014A199B
:103BD0005B096A0182E0C80ED11C1296BC90129754
:103BE0001396AC91B5E0CB16D10440F0B282A3831A
:103BF00051834083D9016D937C930AC00E5F1F4FA0
:103C0000C301800F911FF90191838083EB2DFA2F5F
:103C1000E114F10431F0D7011396FC93EE9312975F
:103C200044C0F0939303E09392033FC08D919C9125
:103C300011974817590708F4AC017D0112960D90B1
:103C4000BC91A02DB3CF80919003909191038815E2
:103C50009905E1F446175707C8F480911F01909128
:103C60002001009741F48DB79EB7409123015091F8
:103C70002401841B950BE817F907C8F4F09391030E
:103C8000E0939003F901718360830FC0CB010E9420
:103C9000681B7C01009759F0A801BE010E94631EB9
:103CA000CE010E94FD1BC70104C0CE0102C080E00E
:103CB00090E0CDB7DEB7EEE00C94551D81E090E0CA
:103CC000F8940C94B01EFB01DC0102C001900D922F
:103CD00041505040D8F70895FC018191861721F09A
:103CE0008823D9F7992708953197CF010895FB01CB
:103CF000DC018D91019080190110D9F3990B089581
:103D0000FB01DC0101900D920020E1F70895FB0119
:103D1000DC014150504048F001900D920020C9F75D
:103D200001C01D9241505040E0F70895FB015191B0
:103D30005523A9F0BF01DC014D9145174111E1F771
:103D400059F4CD010190002049F04D9140154111E9
:103D5000C9F3FB014111EFCF81E090E00197089595
:043D6000F894FFCF05
:103D6400796F757270617373776F726400796F75B0
:103D7400725353494400796F757241555448000099
:103D8400009403800000000000C3022C025B020ABE
:103D9400038C026A027E022B4950442C000D0A0D4A
:103DA4000A4F4B006C696E6B206973206E6F740050
:103DB4003E0053454E44204F4B00626C796E6B2D90
:103DC400636C6F75642E636F6D000D0D0A004C6992
:103DD4006E6B206973206275696C646564003A00D7
:103DE4006E6F206368616E676500696E006F75743D
:103DF4000070776D0064770061770070750046414C
:103E0400494C0054435000414C52454144592043CD
:0E3E14004F4E4E454354004552524F5200004F
:107E0000112484B714BE81FFF0D085E080938100F7
:107E100082E08093C00088E18093C10086E0809377
:107E2000C20080E18093C4008EE0C9D0259A86E02C
:107E300020E33CEF91E0309385002093840096BBD3
:107E4000B09BFECF1D9AA8958150A9F7CC24DD24C4
:107E500088248394B5E0AB2EA1E19A2EF3E0BF2EE7
:107E6000A2D0813461F49FD0082FAFD0023811F036
:107E7000013811F484E001C083E08DD089C08234E0
:107E800011F484E103C0853419F485E0A6D080C0E4
:107E9000853579F488D0E82EFF2485D0082F10E0AE
:107EA000102F00270E291F29000F111F8ED06801E7
:107EB0006FC0863521F484E090D080E0DECF843638
:107EC00009F040C070D06FD0082F6DD080E0C81688
:107ED00080E7D80618F4F601B7BEE895C0E0D1E017
:107EE00062D089930C17E1F7F0E0CF16F0E7DF06D8
:107EF00018F0F601B7BEE89568D007B600FCFDCFD4
:107F0000A601A0E0B1E02C9130E011968C91119780
:107F100090E0982F8827822B932B1296FA010C0160
:107F200087BEE89511244E5F5F4FF1E0A038BF0790
:107F300051F7F601A7BEE89507B600FCFDCF97BE46
:107F4000E89526C08437B1F42ED02DD0F82E2BD052
:107F50003CD0F601EF2C8F010F5F1F4F84911BD097
:107F6000EA94F801C1F70894C11CD11CFA94CF0C13
:107F7000D11C0EC0853739F428D08EE10CD085E9AC
:107F80000AD08FE07ACF813511F488E018D01DD067
:107F900080E101D065CF982F8091C00085FFFCCF94
:107FA0009093C60008958091C00087FFFCCF809118
:107FB000C00084FD01C0A8958091C6000895E0E648
:107FC000F0E098E1908380830895EDDF803219F02E
:107FD00088E0F5DFFFCF84E1DECF1F93182FE3DFCA
:107FE0001150E9F7F2DF1F91089580E0E8DFEE27F6
:047FF000FF270994CA
:027FFE00040479
:0400000300007E007B
:00000001FF
