:100000000C9462000C948A000C948A000C948A0070
:100010000C948A000C948A000C948A000C948A0038
:100020000C948A000C948A000C948A000C948A0028
:100030000C948A000C948A000C948A000C948A0018
:100040000C94F9010C948A000C9469020C944302FC
:100050000C948A000C948A000C948A000C948A00F8
:100060000C948A000C948A000000000024002700F1
:100070002A000000000023002600290000000000E4
:10008000250028002B0004040404040404040202D4
:100090000202020203030303030301020408102007
:1000A0004080010204081020010204081020000012
:1000B0000008000201000003040700000000000027
:1000C0000000C40411241FBECFEFD8E0DEBFCDBFB7
:1000D00011E0A0E0B1E0E4EDFDE002C005900D927A
:1000E000A233B107D9F721E0A2E3B1E001C01D922C
:1000F000A83DB207E1F710E0C2E6D0E004C02197C6
:10010000FE010E94DD06C136D107C9F70E94E00258
:100110000C94E8060C940000E8EBF0E09491E4EA1B
:10012000F0E02491E0E9F0E0E491EE2309F43CC032
:10013000992339F1933091F038F49130A9F092304D
:1001400001F594B59F7D12C0973091F09830A1F0E1
:100150009430B9F4909180009F7D03C0909180000D
:100160009F77909380000DC094B59F7794BD09C090
:100170009091B0009F7703C09091B0009F7D9093C5
:10018000B000F0E0EE0FFF1FE458FF4FA591B491CF
:100190009FB7F894811104C08C912095282302C048
:1001A000EC912E2B2C939FBF0895CF92DF92EF926C
:1001B000FF920F931F93CF93DF936C017A018B0112
:1001C000C0E0D0E0CE15DF0581F0D8016D918D0142
:1001D000D601ED91FC910190F081E02DC6010995C9
:1001E000892B11F02196EECF7E01C701DF91CF91CF
:1001F0001F910F91FF90EF90DF90CF900895089599
:1002000080E090E00895FC01538D448D252F30E06F
:10021000842F90E0821B930B541710F0CF96089513
:1002200001970895FC01918D828D981761F0828D60
:10023000DF01A80FB11D5D968C91928D9F5F9F731A
:10024000928F90E008958FEF9FEF0895FC01918DBC
:10025000828D981731F0828DE80FF11D858D90E029
:1002600008958FEF9FEF0895FC01918D228D892FC6
:1002700090E0805C9F4F821B91098F7399270895AE
:100280008BE391E00E94340121E0892B09F420E006
:10029000822F0895FC01848DDF01A80FB11DA35AA0
:1002A000BF4F2C91848D90E001968F739927848F96
:1002B000A689B7892C93A089B1898C9183708064B9
:1002C0008C93938D848D981306C00288F389E02D5A
:1002D00080818F7D80830895EF92FF920F931F930B
:1002E000CF93DF93EC0181E0888F9B8D8C8D9813E9
:1002F00005C0E889F989808185FD26C0F62E0B8D21
:1003000010E00F5F1F4F0F731127E02E8C8DE81246
:100310000CC00FB607FCFACFE889F989808185FF08
:10032000F5CFCE010E944A01F1CF8B8DFE01E80F7F
:10033000F11DE35AFF4FF0829FB7F8940B8FEA89C3
:10034000FB89808180620AC09FB7F894EE89FF899B
:100350006083E889F98980818370806480839FBF8E
:1003600081E090E0DF91CF911F910F91FF90EF908E
:100370000895CF93DF93EC01888D8823C9F0EA8933
:10038000FB89808185FD05C0A889B9898C9186FD8E
:100390000FC00FB607FCF5CF808185FFF2CFA8898B
:1003A000B9898C9185FFEDCFCE010E944A01E7CF3C
:1003B000DF91CF91089580E090E0892B29F00E9491
:1003C000400181110C9400000895009769F0FC0130
:1003D00001900020E9F73197AF01481B590BBC0190
:1003E0008BE391E00C94D50080E090E008950E94AA
:1003F000E3061F920F920FB60F9211242F933F9393
:100400008F939F93AF93BF93809137019091380161
:10041000A0913901B0913A013091360123E0230FC8
:100420002D3720F40196A11DB11D05C026E8230F2C
:100430000296A11DB11D2093360180933701909340
:100440003801A0933901B0933A0180913201909123
:100450003301A0913401B09135010196A11DB11D68
:100460008093320190933301A0933401B09335010E
:10047000BF91AF919F918F913F912F910F900FBEA0
:100480000F901F9018951F920F920FB60F92112484
:100490002F933F934F935F936F937F938F939F938C
:1004A000AF93BF93EF93FF938BE391E00E944A01D8
:1004B000FF91EF91BF91AF919F918F917F916F913C
:1004C0005F914F913F912F910F900FBE0F901F9012
:1004D00018951F920F920FB60F9211242F938F939E
:1004E0009F93EF93FF93E0914B01F0914C0180813A
:1004F000E0915101F091520182FD12C090818091F2
:1005000054018F5F8F7320915501821751F0E09154
:100510005401F0E0E55CFE4F958F8093540101C0DB
:100520008081FF91EF919F918F912F910F900FBE3E
:100530000F901F901895CF92DF92EF92FF920F933A
:100540001F93E82FF92F05C0015011092109310926
:1005500061F1908196239417B9F305C001501109F8
:100560002109310911F1908196239413F7CFC12C01
:10057000D12CE12CF12C0AC08FEFC81AD80AE80A56
:10058000F80A0C151D052E053F0579F0808186239C
:10059000841791F36C2D7D2D8E2D9F2D1F910F9122
:1005A000FF90EF90DF90CF90089560E070E080E0E2
:1005B00090E01F910F91FF90EF90DF90CF90089502
:1005C000CF93DF93CDB7DEB7A1970FB6F894DEBF18
:1005D0000FBECDBF789484B5826084BD84B5816040
:1005E00084BD85B5826085BD85B5816085BD8091FE
:1005F0006E00816080936E00109281008091810076
:10060000826080938100809181008160809381006D
:10061000809180008160809380008091B10084602F
:100620008093B1008091B00081608093B000809190
:100630007A00846080937A0080917A00826080934F
:100640007A0080917A00816080937A0080917A00AC
:10065000806880937A001092C100E4EAF0E024916F
:10066000E0E9F0E08491882399F090E0880F991FE9
:10067000FC01E859FF4FA591B491FC01E458FF4FEC
:10068000859194918FB7F894EC91E22BEC938FBF06
:10069000E5EAF0E02491E1E9F0E084918823C9F0F3
:1006A00090E0880F991FFC01E859FF4F4591549144
:1006B000FC01E458FF4FA591B4919FB7F894FA015B
:1006C00080812095822380838C91E22FE823EC9314
:1006D0009FBFE0914B01F0914C0182E08083E0915B
:1006E0004701F09148011082E0914901F0914A01DF
:1006F0008FEC808310925301E0914F01F0915001F3
:1007000086E08083E0914D01F0914E01808180610F
:100710008083E0914D01F0914E018081886080835B
:10072000E0914D01F0914E01808180688083E091DD
:100730004D01F0914E0180818F7D808393E2292EBF
:10074000312C80E00E948C0083E090E00197F1F76B
:1007500081E00E948C00C1010197F1F780E00E94C6
:100760008C00E5EAF0E06491E1E9F0E08491E82FA3
:10077000F0E0EE0FFF1FEE58FF4F8591949100E4DB
:1007800012E42FE030E0462F0E949B0261157105B4
:100790008105910549F0DC01CB010196A11DB11D38
:1007A000BC01CD019F7003C060E070E0CB010E94EE
:1007B000920526E933E44BE05DE30E94490620E020
:1007C00030E040E05FE30E9449066B017C014B0191
:1007D0005C0182E191E00E94E5018FE191E00E94DD
:1007E000E501A7019601C701B6010E94B60688235C
:1007F00019F082E291E01AC026013701E89477F8F7
:100800002FEF3FEF4FE75FE7C301B2010E94B6064B
:1008100081110FC02FEF3FEF4FE75FE7C301B20138
:100820000E945E0518162CF486E291E00E94E50114
:10083000A0C02FEF3FEF4FE75FE4C701B6010E9472
:10084000440618161CF48AE291E0F0CF2FEF3FEF38
:100850004FE75FECC701B6010E945E0587FDF3CF4D
:1008600020E030E0A901C701B6010E945E0587FFC4
:100870000BC06DE28BE391E00E946C0146015701D1
:10088000B7FAB094B7F8B0942AE037ED43EA5BE3E7
:10089000C501B4010E94F2046B017C010E94630552
:1008A0004B015C010E9492059B01AC01C701B6019E
:1008B0000E94F1042B013C0119A27E01F1E2EF0E2E
:1008C000F11C0E2DDF2CC501B4012AE030E040E020
:1008D00050E00E94BB0649015A01605DF701629336
:1008E0007F01232B242B252B71F7CF010E94E501DB
:1008F0006EE28BE391E00E946C0113E01150C9F1AC
:1009000020E030E040E251E4C301B2010E94490618
:100910004B015C010E9463059B0140E050E019A27D
:10092000E02EFD2C562E632E742EC52ECA01B90161
:100930002AE030E040E050E00E94BB06605DF70135
:1009400062937F01211531054105510579F7CF01EA
:100950000E94E501652D762D872D9C2D0E94920524
:100960009B01AC01C501B4010E94F1042B013C01C3
:10097000C5CF8FE191E00E94E5018EE291E00E94F7
:10098000E5010E94DB01DDCEEBE3F1E01382128290
:1009900088EE93E0A0E0B0E084839583A683B783DC
:1009A00084E091E09183808385EC90E09587848753
:1009B00084EC90E09787868780EC90E0918B808B29
:1009C00081EC90E0938B828B82EC90E0958B848B12
:1009D00086EC90E0978B868B118E128E138E148E80
:1009E00008955058BB27AA270E9409050C940A06AF
:1009F0000E94FC0538F00E94030620F039F49F3F66
:100A000019F426F40C94F9050EF4E095E7FB0C9428
:100A1000F305E92F0E941B0658F3BA176207730704
:100A20008407950720F079F4A6F50C943D060EF4A2
:100A3000E0950B2EBA2FA02D0B01B90190010C01EE
:100A4000CA01A0011124FF27591B99F0593F50F406
:100A5000503E68F11A16F040A22F232F342F44275E
:100A6000585FF3CF469537952795A795F040539556
:100A7000C9F77EF41F16BA0B620B730B840BBAF026
:100A80009150A1F0FF0FBB1F661F771F881FC2F791
:100A90000EC0BA0F621F731F841F48F487957795A5
:100AA0006795B795F7959E3F08F0B0CF9395880F5F
:100AB00008F09927EE0F9795879508950E94CF0526
:100AC00008F481E008950E94230688F09F5798F06B
:100AD000B92F9927B751B0F0E1F0660F771F881F43
:100AE000991F1AF0BA95C9F714C0B13091F00E945D
:100AF0003D06B1E008950C943D06672F782F8827B6
:100B0000B85F39F0B93FCCF3869577956795B39583
:100B1000D9F73EF490958095709561957F4F8F4FF2
:100B20009F4F0895E89409C097FB3EF490958095F7
:100B3000709561957F4F8F4F9F4F9923A9F0F92FA3
:100B400096E9BB279395F695879577956795B79521
:100B5000F111F8CFFAF4BB0F11F460FF1BC06F5F07
:100B60007F4F8F4F9F4F16C0882311F096E911C019
:100B7000772321F09EE8872F762F05C0662371F03A
:100B800096E8862F70E060E02AF09A95660F771F4E
:100B9000881FDAF7880F9695879597F90895990F2A
:100BA0000008550FAA0BE0E8FEEF16161706E80737
:100BB000F907C0F012161306E407F50798F0621B58
:100BC000730B840B950B39F40A2661F0232B242B2D
:100BD000252B21F408950A2609F4A140A6958FEF4C
:100BE000811D811D089597F99F6780E870E060E09E
:100BF00008959FEF80EC089500240A9416161706B6
:100C000018060906089500240A94121613061406FD
:100C100005060895092E0394000C11F4882352F060
:100C2000BB0F40F4BF2B11F460FF04C06F5F7F4F18
:100C30008F4F9F4F089557FD9058440F551F59F0FF
:100C40005F3F71F04795880F97FB991F61F09F3FB9
:100C500079F087950895121613061406551FF2CFE2
:100C60004695F1DF08C0161617061806991FF1CF32
:100C700086957105610508940895E894BB27662759
:100C80007727CB0197F908950E94CF0508F48FEFDD
:100C900008950E945C060C940A060E94FC0538F038
:100CA0000E94030620F0952311F00C94F3050C9498
:100CB000F90511240C943E060E941B0670F3959FC3
:100CC000C1F3950F50E0551F629FF001729FBB2743
:100CD000F00DB11D639FAA27F00DB11DAA1F649FDF
:100CE0006627B00DA11D661F829F2227B00DA11D92
:100CF000621F739FB00DA11D621F839FA00D611D18
:100D0000221F749F3327A00D611D231F849F600D38
:100D1000211D822F762F6A2F11249F5750409AF061
:100D2000F1F088234AF0EE0FFF1FBB1F661F771FED
:100D3000881F91505040A9F79E3F510580F00C94B8
:100D4000F3050C943E065F3FE4F3983ED4F386959A
:100D500077956795B795F795E7959F5FC1F7FE2B58
:100D6000880F911D9695879597F908950E94CF0554
:100D7000880B990B0895A1E21A2EAA1BBB1BFD013B
:100D80000DC0AA1FBB1FEE1FFF1FA217B307E4076A
:100D9000F50720F0A21BB30BE40BF50B661F771FC2
:100DA000881F991F1A9469F76095709580959095A2
:100DB0009B01AC01BD01CF010895EE0FFF1F05900F
:100DC000F491E02D099481E090E0F8940C94E80609
:040DD000F894FFCFC5
:100DD400000000006C01D5000301B90134011201C7
:100DE400260144697374616E63652069733A000D6A
:100DF4000A006E616E00696E66006F76660020639D
:020E04006D007F
:00000001FF
