:100000000C945C000C9479000C9479000C947900A9
:100010000C9479000C9479000C9479000C9479007C
:100020000C9479000C9479000C9479000C9479006C
:100030000C9479000C9479000C9479000C9479005C
:100040000C94A0000C9479000C9479000C94790025
:100050000C9479000C9479000C9479000C9479003C
:100060000C9479000C947900000000002400270013
:100070002A0000000000250028002B0004040404CE
:100080000404040402020202020203030303030342
:10009000010204081020408001020408102001021F
:1000A00004081020000000080002010000030407FB
:1000B000000000000000000011241FBECFEFD8E0B8
:1000C000DEBFCDBF11E0A0E0B1E0E6EDF3E002C09D
:1000D00005900D92A030B107D9F721E0A0E0B1E082
:1000E00001C01D92AC30B207E1F70E94EA000C9407
:1000F000E9010C9400003FB7F894809108019091B9
:100100000901A0910A01B0910B0126B5A89B05C079
:100110002F3F19F00196A11DB11D3FBFBA2FA92F86
:10012000982F8827820F911DA11DB11DBC01CD0103
:1001300042E0660F771F881F991F4A95D1F70895EF
:100140001F920F920FB60F9211242F933F938F930C
:100150009F93AF93BF938091040190910501A0916B
:100160000601B09107013091030123E0230F2D37E1
:1001700020F40196A11DB11D05C026E8230F0296AB
:10018000A11DB11D209303018093040190930501EB
:10019000A0930601B0930701809108019091090195
:1001A000A0910A01B0910B010196A11DB11D809390
:1001B000080190930901A0930A01B0930B01BF912C
:1001C000AF919F918F913F912F910F900FBE0F9004
:1001D0001F901895789484B5826084BD84B5816041
:1001E00084BD85B5826085BD85B5816085BD809102
:1001F0006E00816080936E0010928100809181007A
:100200008260809381008091810081608093810071
:10021000809180008160809380008091B100846033
:100220008093B1008091B00081608093B000809194
:100230007A00846080937A0080917A008260809353
:100240007A0080917A00816080937A0080917A00B0
:10025000806880937A001092C100CDE9D0E0FE0161
:10026000249109E810E0F8018491882399F090E046
:10027000880F991FFC01E859FF4FA591B491FC012B
:10028000EE58FF4F859194919FB7F8948C91822BF3
:100290008C939FBF109200013324339491EB892EED
:1002A00090E0992E20E0A22E20E0B22E30E4232E02
:1002B00020927C0080917A00806480937A00809103
:1002C0007A0086FDFCCFC090780080917900D12C17
:1002D000D82AD0920201C09201010D2C000CEE0828
:1002E000FF080E947B002B013C01C114D104E104F2
:1002F000F104F1F00E947B00DC01CB018419950927
:10030000A609B709883E9340A105B10570F3F1E055
:10031000CF1AD108E108F10828EE420E23E0521E60
:10032000611C711CC114D104E104F10419F7DDCF83
:1003300020910001232520930001F4018491FE0106
:100340009491F8013491332309F43CC0882339F1A6
:10035000833091F038F48130A9F0823001F584B512
:100360008F7D12C0873091F08830A1F08430B9F4CD
:10037000809180008F7D03C0809180008F77809373
:1003800080000DC084B58F7784BD09C08091B00016
:100390008F7703C08091B0008F7D8093B000E32FF2
:1003A000F0E0EE0FFF1FEE58FF4FA591B4913FB75D
:1003B000F8948C91211103C09095982301C0982B3B
:1003C0009C933FBFA114B10409F472CF0E940000B6
:0603D0006FCFF894FFCF8F
:00000001FF
