:100000000C945C000C946E000C946E000C946E00CA
:100010000C946E000C946E000C946E000C946E00A8
:100020000C946E000C946E000C946E000C946E0098
:100030000C946E000C946E000C946E000C946E0088
:100040000C94D5000C946E000C946E000C946E0011
:100050000C946E000C946E000C946E000C946E0068
:100060000C946E000C946E00000000080002010069
:100070000003040700000000000000000000000072
:10008000250028002B0000000000240027002A0083
:10009000040404040404040402020202020203032E
:1000A0000303030301020408102040800102040836
:1000B000102001020408102011241FBECFEFD8E049
:1000C000DEBFCDBF21E0A0E0B1E001C01D92AD30A8
:1000D000B207E1F70E941F010C94E2010C940000AA
:1000E000EFEAF0E02491EBE9F0E08491882399F0C5
:1000F00090E0880F991FFC01EA57FF4FA591B4913A
:10010000FC01E458FF4F859194918FB7F894EC91DE
:10011000E22BEC938FBF0895E3E7F0E09491EFEAD0
:10012000F0E02491EBE9F0E0E491EE2309F43CC027
:10013000992339F1933091F038F49130A9F092304D
:1001400001F594B59F7D12C0973091F09830A1F0E1
:100150009430B9F4909180009F7D03C0909180000D
:100160009F77909380000DC094B59F7794BD09C090
:100170009091B0009F7703C09091B0009F7D9093C5
:10018000B000F0E0EE0FFF1FE458FF4FA591B491CF
:100190009FB7F894811104C08C912095282302C048
:1001A000EC912E2B2C939FBF08951F920F920FB6A8
:1001B0000F9211242F933F938F939F93AF93BF93ED
:1001C0008091090190910A01A0910B01B0910C015D
:1001D0003091080123E0230F2D3720F40196A11D53
:1001E000B11D05C026E8230F0296A11DB11D209365
:1001F00008018093090190930A01A0930B01B09329
:100200000C018091040190910501A0910601B0912B
:1002100007010196A11DB11D809304019093050172
:10022000A0930601B0930701BF91AF919F918F9169
:100230003F912F910F900FBE0F901F9018957894BB
:1002400084B5826084BD84B5816084BD85B58260DB
:1002500085BD85B5816085BD80916E00816080938C
:100260006E001092810080918100826080938100F5
:100270008091810081608093810080918000816005
:10028000809380008091B10084608093B100809160
:10029000B00081608093B00080917A008460809388
:1002A0007A0080917A00826080937A0080917A004F
:1002B000816080937A0080917A00806880937A00D0
:1002C0001092C1000E94700010920301109202016E
:1002D00081E090E0909301018093000103E710E03A
:1002E00080E0E82E80E0F82EC0910201D091030159
:1002F0000E947000209711F480E004C0CF3FD10528
:1003000021F481E00E948C0042C0F8018491833086
:10031000F9F048F48130B9F08230A1F584B58062FB
:1003200084BDC8BD34C08730E9F0883019F184300D
:1003300049F580918000806280938000D0938B008B
:10034000C0938A0024C084B5806884BDC7BD1FC027
:1003500080918000806880938000D0938900C09352
:10036000880015C08091B00080688093B000C09371
:10037000B3000DC08091B00080628093B000C09344
:10038000B40005C0C038D1050CF0BBCFB5CF80910B
:100390000201909103018E3F910511F0892B59F4D0
:1003A000809100019091010191958195910990931F
:1003B000010180930001E114F10409F495CF0E943A
:0803C000000092CFF894FFCF7A
:107E0000112484B714BE81FFF0D085E080938100F7
:107E100082E08093C00088E18093C10086E0809377
:107E2000C20080E18093C4008EE0C9D0259A86E02C
:107E300020E33CEF91E0309385002093840096BBD3
:107E4000B09BFECF1D9AA8958150A9F7CC24DD24C4
:107E500088248394B5E0AB2EA1E19A2EF3E0BF2EE7
:107E6000A2D0813461F49FD0082FAFD0023811F036
:107E7000013811F484E001C083E08DD089C08234E0
:107E800011F484E103C0853419F485E0A6D080C0E4
:107E9000853579F488D0E82EFF2485D0082F10E0AE
:107EA000102F00270E291F29000F111F8ED06801E7
:107EB0006FC0863521F484E090D080E0DECF843638
:107EC00009F040C070D06FD0082F6DD080E0C81688
:107ED00080E7D80618F4F601B7BEE895C0E0D1E017
:107EE00062D089930C17E1F7F0E0CF16F0E7DF06D8
:107EF00018F0F601B7BEE89568D007B600FCFDCFD4
:107F0000A601A0E0B1E02C9130E011968C91119780
:107F100090E0982F8827822B932B1296FA010C0160
:107F200087BEE89511244E5F5F4FF1E0A038BF0790
:107F300051F7F601A7BEE89507B600FCFDCF97BE46
:107F4000E89526C08437B1F42ED02DD0F82E2BD052
:107F50003CD0F601EF2C8F010F5F1F4F84911BD097
:107F6000EA94F801C1F70894C11CD11CFA94CF0C13
:107F7000D11C0EC0853739F428D08EE10CD085E9AC
:107F80000AD08FE07ACF813511F488E018D01DD067
:107F900080E101D065CF982F8091C00085FFFCCF94
:107FA0009093C60008958091C00087FFFCCF809118
:107FB000C00084FD01C0A8958091C6000895E0E648
:107FC000F0E098E1908380830895EDDF803219F02E
:107FD00088E0F5DFFFCF84E1DECF1F93182FE3DFCA
:107FE0001150E9F7F2DF1F91089580E0E8DFEE27F6
:047FF000FF270994CA
:027FFE00040479
:0400000300007E007B
:00000001FF
